:1000000017EF00F0EA6A070EE96EEF500EE0010EFE
:10001000016E006A002EFED7012EFBD74A0E006E3D
:10002000002EFED700D0EF2EF2D74AEF00F0F86A8C
:10003000D09EEA6AE96A600ED36ED350C150C00BFD
:100040000F09C16E070EB46E0F0E946E000E956E02
:10005000936E600ED36ED350056A066A956A8C6AF9
:10006000936A8A6A948082A012D0936A06C08AFF3B
:10007000956A05C08CFF010E062606500A0807E1A6
:10008000066A010E052605500A0801E1056AC80E38
:08009000076EB8D7E7D70300A3
:020000040030CA
:0E0000003FC83E1E000781000FC00FE00F40FA
:00000001FF
;PIC18F4550
;CRC=FAE0  CREATED="18-dic.-20 17:11"
